:020000040000FA
:040000009DEF0BF075
:101000000043616E6E6F74207365742074696D6542
:1010100000696E2062696E617279206D6F6465008F
:0110200000CF
:101022001850D8A4ACD0000E156E000E146E8AD0E3
:1010320014C00BF015C00CF0230E0D6E000E0E6ED8
:10104200000E106E020E0F6EA8EC09F079D0020E9F
:101052002318D8A40FD014C00BF015C00CF0220E28
:101062000D6E000E0E6E000E106E030E0F6EA8ECCB
:1010720009F066D014C00BF015C00CF0220E0D6EF4
:10108200000E0E6E000E106E090E0F6EA8EC09F027
:1010920057D014C00BF015C00CF0210E0D6E000ECF
:1010A2000E6E000E106E050E0F6EA8EC09F048D001
:1010B20014C00BF015C00CF0200E0D6E000E0E6E5B
:1010C200000E106E090E0F6EA8EC09F039D014C094
:1010D2000BF015C00CF01F0E0D6E000E0E6E000E02
:1010E200106E050E0F6EA8EC09F02AD014C00BF09A
:1010F20015C00CF01E0E0D6E000E0E6E000E106E60
:10110200090E0F6EA8EC09F01BD014C012F015C026
:1011120013F01350000AD8A413D01250000AD8B406
:1011220087D7010AD8B493D7020AD8B4B2D7070A2C
:10113200D8B4BED7020AD8B4CAD7010AD8B4D6D70F
:10114200144A152A15BEE1D7155004E1080E145CA5
:10115200D8A0DBD71F38F00B1E101B6E2138F00B06
:1011620020101C6E2338F00B22101D6E36EC0BF093
:10117200000E066E640E056EDFEC0BF0120004EC3E
:101182000CF0000E2CEC0CF0010E026E100E036E31
:101192006CEC0BF0280E2CEC0CF0110E026E100E03
:1011A200036E6CEC0BF0070E066ED00E056EDFECD4
:1011B2000BF012001EC009F01D380F0B0F0B236E2F
:1011C2001D500F0B226E1C380F0B0F0B216E1C5083
:1011D2000F0B206E1B380F0B0F0B1F6E1B500F0BCC
:1011E2001E6E1E500918D8B412001850D8B431D04F
:1011F20004EC0CF0000E2CEC0CF0215053EC0BF034
:101202007C0E3FEC0CF0205053EC0BF0200E3FEC28
:101212000CF02150300F3FEC0CF02050300F3FEC1F
:101222000CF0280E2CEC0CF01F5053EC0BF07C0E43
:101232003FEC0CF01E5053EC0BF0200E3FEC0CF088
:101242001F50300F3FEC0CF01E50300F3FEC0CF0F3
:10125200120004EC0CF0000E2CEC0CF02350300FBA
:101262003FEC0CF02250300F3FEC0CF03A0E3FEC0A
:101272000CF02150300F3FEC0CF02050300F3FECBF
:101282000CF03A0E3FEC0CF01F50300F3FEC0CF01C
:101292001E50300F3FEC0CF012000F0E8B16000E9A
:1012A200176E000E166E000E066E3C0E056EDFEC1B
:1012B2000BF0030E8B6E00D08B8800D08B500F0B7F
:1012C2008B6E00D0000E066E0A0E056EDFEC0BF080
:1012D20000D08B8800D08B500F0B8B6E00D0100E7D
:1012E200E82EFED700D000D08B8800D08B500F0B99
:1012F2008B6E00D0100EE82EFED700D0020E8B6E41
:1013020000D08B8800D08B500F0B8B6E00D0100E4C
:10131200E82EFED700D0290E79EC0AF01D0E79ECEA
:101322000AF0790E79EC0AF0500E79EC0AF06C0EA4
:1013320079EC0AF0280E79EC0AF00E0E79EC0AF03C
:10134200010E79EC0AF0060E79EC0AF012000B504D
:101352002CEC0CF0000E066E640E056EDFEC0BF04A
:1013620026D00DC0D9FF0EC0DAFFDF50116E010E7C
:101372001124016E026A000E0222010E0F24036E76
:10138200000E1020046EE6EC09F001500DC0D9FFEA
:101392000EC0DAFFDF6E0B502CEC0CF00DC0D9FF43
:1013A2000EC0DAFFDF50300F3FEC0CF0D3D71EEC4B
:1013B2000AF00A50000AD8A4CDD70950000AD8B4BE
:1013C200D0D7010AD8B41200C5D7000E066E02AEFD
:1013D20006D0016C021ED8B0022A010E066E04AEBF
:1013E20004D0036C041ED8B0042A03500410D8B4ED
:1013F20018D0010E056E04D0D89003360436052AA3
:1014020004AEFAD70350015C04500258D8A004D0AD
:101412000350015E0450025AD89004320332052E62
:10142200F1D70650D8B404D0016C021ED8B0022AFB
:1014320001C001F002C002F0120081B00DD0000E16
:10144200066E320E056EDFEC0BF081B023D0000E7B
:101452000A6E000E096E120081B20DD0000E066EE9
:10146200320E056EDFEC0BF081B214D0000E0A6E64
:10147200010E096E120081B40DD0000E066E320EFE
:10148200056EDFEC0BF081B405D0000E0A6E020E81
:10149200096E120009680A6812000B6E000E0C6ECB
:1014A20020D00B50076E086A0C50096E0A6A010EB2
:1014B2000926000E0A220750091804E108500A18EA
:1014C200D8B404D0010ECAEC0AF003D0000ECAEC64
:1014D2000AF005C0D9FF06C0DAFFDF6E054A062A08
:1014E2000C2A0B500C5CD8A0DCD712EC0CF01200CA
:1014F200016E01380F0B8B6E16041710D8A402D0A0
:101502008B8C02D00F0E8B1600D08B8800D08B50A4
:101512000F0B8B6E00D000D001500F0B8B6E160498
:101522001710D8A402D08B8C02D00F0E8B1600D0CD
:101532008B8800D08B500F0B8B6E00D0100EE82ED4
:10154200FED700D01200B4EC0BF036EC0BF0000E1C
:10155200196E36EC0BF085EC0BF0DBEC08F008D0E2
:1015620036EC0CF0F8D711EC08F0F5D7181EF3D7CB
:101572001EEC0AF00A50000AD8A4EDD70950000A5E
:10158200D8B4EED7010AD8B4EED7030AD8B4EED74E
:10159200E2D7026E000E046E080E036E95909582DD
:1015A2005FEC0CF08C80D89004365FEC0CF083A2D8
:1015B20002D0010E01D0000E04128C905FEC0CF0F0
:1015C200032EF0D7959095920250D8B403D050ECE8
:1015D2000CF002D048EC0CF004501200036E080E1E
:1015E200046E03AE03D0026A022A01D0026A0246E6
:1015F2008C500218FD0B02188C6E5FEC0CF08C8084
:101602005FEC0CF08C90D8900336042EEAD79590BC
:1016120095828C805FEC0CF08C905FEC0CF09590D6
:1016220095921200000E046E000E036E06D0420E5A
:10163200E82EFED700D0034A042A0150035C025070
:101642000458D8A0F4D7000E046E000E036E06D024
:10165200420EE82EFED700D0034A042A0150035C52
:1016620002500458D8B01200F3D7190E076E000EBC
:10167200086E12EC0CF0000E056E000EF3EC0BF08F
:10168200000E096E07C0D9FF08C0DAFFDF50EFEC89
:101692000AF0074A082A092A040E0964F3D712EC51
:1016A2000CF01200036E080E066E035006140009B9
:1016B200D8A404D0000E056E6F0E03D0000E056E86
:1016C2002A0E046E04503FEC0CF0D89006320650FD
:1016D200D8B41200EAD7000E176E010E166E0AD0A9
:1016E20002C0F6FF03C0F7FF0800F55079EC0AF0DC
:1016F200024A032A02C0F6FF03C0F7FF0800F550B2
:101702000009D8B41200ECD712EC0CF0000E056EF2
:10171200000EF3EC0BF01FEC0CF0010E056E000E48
:10172200F3EC0BF0190E056E000E066E050E4EEC74
:101732000AF012EC0CF01200C80EF66E180EF76EDC
:10174200000EF86E0900F5CF22F00900F5CF23F064
:1017520000EE16F00C0EEE6AE806FDE1000EF86EE1
:101762000001A4EF0AF0D3508F0B7009D36E936877
:101772008A68000E0F01396F000E956E000E8C6E96
:10178200000E3B6FD08EF28C58EC0CF0CAEC0BF0D2
:101792001200959095928C808C80800E196E000EAE
:1017A2001A6E1F38F00B1E101B6E2138F00B201022
:1017B2001C6E2338F00B22101D6E1200000E086EF4
:1017C200000E076E08D0000E026E0A0E016E13ECB8
:1017D2000BF0074A082A0550075C06500858D8B093
:1017E2001200F1D7066E1FEC0CF00550D8A407D0FA
:1017F200A00EEFEC0AF00650EFEC0AF01200A10E78
:10180200EFEC0AF01200000E176E000E166E010EBB
:1018120079EC0AF0000E066E020E056EDFEC0BF09C
:101822001200959095928C925FEC0CF08C905FEC8C
:101832000CF08C805FEC0CF08C82120095909592EB
:101842008C805FEC0CF08C825FEC0CF08C925FEC85
:101852000CF08C901200026E000E176E000E166EC7
:101862000250800F79EC0AF012001EEC0AF00950C7
:101872000A10D8A4FAD736EC0BF01200026E000E52
:10188200176E010E166E025079EC0AF012008C826D
:101892005FEC0CF08C805FEC0CF08C9012008C9260
:1018A2005FEC0CF08C805FEC0CF08C901200000E60
:1018B200946E96948D844EEC09F012000A0E016E1D
:0818C200012EFED71200020105
:020000040020DA
:08000000FFFFFFFFFFFFFFFF00
:020000040030CA
:0E000000FF691F3CFFBF85FF0FC00FE00F40E0
:00000001FF
